:0300000002066491
:0C066400787FE4F6D8FD75812A0206AB11
:06000300818385808284E8
:0908E900071D00001200000000D0
:10082700C2B500C2B600D2B500E4FEEF1392B4EF32
:10083700C313FFD2B600C2B6000EBE08EEE4FEED4B
:100847001392B4EDC313FDD2B600C2B6000EBE08B4
:04085700EEC2B50038
:01085B00227A
:1007DD00C2B500C2B600D2B500E4FDEF1392B4EF7E
:1007ED00C313FFD2B600C2B6000DBD08EE00E4FD86
:1007FD00A2B4E433FFC43333335480FCEEC3134C43
:10080D00FED2B600C2B6000DBD08E5C2B500D2B627
:09081D0000C2B400D2B400AF0621
:0108260022AF
:10095C00E4FBEB90000393FF1207DD741D2BF8A64C
:05096C00070BBB03EDC9
:010971002263
:1008A500808284C0C2C4C1C3C5C6C8CAC7C9CBFE7D
:1008B500FDFBF7EFDFBF7F3F065B4F666D7D077F73
:0208C5006F4082
:1008F200010C00011601011A010118010117010181
:050902001B01011901B9
:040883007F0A7E006A
:10088700D3EF9400EE940040147D6E7C00ED1D7054
:0D089700011CED4C70F7EF1F70E61E80E3B2
:0108A4002231
:100908000511E511B43C17E4F5110513E513B43CE2
:0F0918000DE4F5130512E512B41803E4F51222ED
:0805BF000515AF25AD27AB299E
:0405C7008F2AA905C9
:1005CB00E4FAEA9008B493F5A0E50CB40122C3E574
:1005DB00146480948A5019E51C14600C14600E246A
:1005EB0002700D43A0C0800843A018800343A003F2
:1005FB00EAB40800504C900608F82828730206202D
:10060B0002062302062602062802062B02062602F3
:10061B00063402063FEB8013EB801B8006E9800B50
:10062B00E980139008C6E48016E52A75F00A8490D9
:10063B0008BC800BE52A75F00A84E5F09008BC93A2
:10064B00F5807F017E00120887E4F58075A0FF0A14
:08065B00EA640860030205CD0A
:010663002274
:10034A003090030205B61208833090030205B6AF57
:10035A0011EF3395E0F5248F25AF13EF3395E0F5D0
:10036A00268F27AF12EF3395E0F5288F29C28C75B7
:10037A000C013090030205351205C12093131208AF
:10038A008320930D3093FD051CE51CB40303E4F5AB
:10039A001C30940302045612088330940302045654
:1003AA002094631205BF120883C3E51564809494F0
:1003BA0040EEE4F5152094E8E51C14601B14602C4B
:1003CA002402703A0525E52570020524643C45247B
:1003DA00702CF524F52580260527E52770020526C9
:1003EA00643C45267018F526F52780120529E5296B
:1003FA0070020528641845287004F528F5291205A5
:10040A00C112088380AFE51C14601B14602C2402FF
:10041A00703A0525E52570020524643C4524702CB4
:10042A00F524F52580260527E52770020526643C74
:10043A0045267018F526F52780120529E529700248
:10044A000528641845287004F528F5293095030213
:10045A00052F12088330950302052F209572120585
:10046A00BF120883C3E5156480949440EEE4F51541
:10047A002095E8E51C14602014603624027049E5D2
:10048A0025152570021524C3E5246480948050380C
:10049A0075240075253B8030E5271527700215263F
:1004AA00C3E52664809480501F75260075273B801B
:1004BA0017E529152970021528C3E5286480948058
:1004CA0050067528007529171205C112088380A0E5
:1004DA00E51C14602014603624027049E5251525B0
:1004EA0070021524C3E52464809480503875240072
:1004FA0075253B8030E527152770021526C3E526AA
:10050A0064809480501F75260075273B8017E52963
:10051A00152970021528C3E5286480948050067551
:10052A002800752917E4F51502037CE4F50CD28C32
:10053A00852511852713852912FD7F8E120827909C
:10054A0008A5E493FFE51175F00A1208C7C454F030
:10055A00FEE51175F00A1208C7ADF0EE2DFD12087E
:10056A00279008A6E493FFE51375F00A1208C7C49A
:10057A0054F0FEE51375F00A1208C7ADF0EE2DFD32
:10058A001208279008A7E493FFE51275F00A1208EB
:10059A00C7C454F0FEE51275F00A1208C7ADF0EEB2
:1005AA002DFD1208277D807F8E120827AB12AD130E
:0505BA00AF110205C7AE
:10001E003091063092030203491208833091063064
:10002E009203020349209105E4F508800375080147
:10003E00750C01309106309203020346E5087008F4
:10004E00AB18AD1AAF168006AB19AD1BAF17120564
:10005E00C720931312088320930D3093FD051CE5E2
:10006E001CB40303E4F51C309403020190120883C0
:10007E0030940302019030940302012F0515E50818
:10008E007008AB18AD1AAF168006AB19AD1BAF17C3
:10009E001205C7120883C3E5156480949440D7E413
:1000AE00F5152094D1E50875F003A4251C14601CE9
:1000BE0014602514602E14603714604024057046B9
:1000CE000516E516643C703EF516803A051AE51ADB
:1000DE00643C7032F51A802E0518E51864187026E7
:1000EE00F51880220517E517B43C1BE4F5178016AA
:1000FE00051BE51BB43C0FE4F51B800A0519E51939
:10010E00B41803E4F519E5087008AB18AD1AAF166C
:10011E008006AB19AD1BAF171205C712088302007C
:10012E00B0E50875F003A4251C14601C146025149A
:10013E00602E146037146040240570460516E516CF
:10014E00643C703EF516803A051AE51A643C70322E
:10015E00F51A802E0518E51864187026F5188022F9
:10016E000517E517B43C1BE4F5178016051BE51BB8
:10017E00B43C0FE4F51B800A0519E519B41803E425
:10018E00F5193095030202DB120883309503020243
:10019E00DB3095030202620515E5087008AB18AD59
:1001AE001AAF168006AB19AD1BAF171205C7120892
:1001BE0083C3E5156480949440D7E4F5152095D15A
:1001CE00E50875F003A4251C14602014602D14603E
:1001DE003A1460471460542405705E1516C3E51674
:1001EE0064809480505375163B804E151AC3E51AE1
:1001FE00648094805043751A3B803E1518C3E518F1
:10020E00648094805033751817802E1517C3E51728
:10021E0064809480502375173B801E151BC3E51B0D
:10022E00648094805013751B3B800E1519C3E5191D
:10023E00648094805003751917E5087008AB18ADEB
:10024E001AAF168006AB19AD1BAF171205C71208F1
:10025E00830201CBE50875F003A4251C146020145D
:10026E00602D14603A1460471460542405705E15B6
:10027E0016C3E51664809480505375163B804E1558
:10028E001AC3E51A648094805043751A3B803E155C
:10029E0018C3E518648094805033751817802E1596
:1002AE0017C3E51764809480502375173B801E1585
:1002BE001BC3E51B648094805013751B3B800E1589
:1002CE0019C3E519648094805003751917E4F51568
:1002DE00E5087008AB18AD1AAF168006AB19AD1B4A
:1002EE00AF171205C7E4FD7F8E1208279008A8E409
:1002FE0093FFAD161208279008A9E493FFAD1A12CA
:10030E0008279008AAE493FFAD181208279008AEAC
:10031E00E493FFAD171208279008AFE493FFAD1BCF
:10032E001208279008B0E493FFAD191208277D80BC
:0C033E007F8E120827020041E4F50C221B
:10077B00E512B5180BE513B51A06E51165166012EF
:10078B00E5126519704BE513651B7045E51165178F
:02079B00703FAD
:10079D0085122485132585112630901230910F3046
:1007AD00930C3094093095067E007F0180047E0005
:1007BD007F00EF64014E7017B2B77F907E01120873
:0F07CD0087AB24AD25AF261205C7E4F58080CA9F
:0107DC0022FA
:1006F00012095CE51FC4540FF50AE51F540FF50DF0
:10070000E50A75F00AA4250DF512E51EC4540FF58F
:100710000EE51E540FF50FE50E75F00AA4250FF532
:1007200013E51DC4540FF509E51D540FF50BE5093C
:1007300075F00AA4250BF5119008ABE493FF12079E
:10074000DD8F169008ACE493FF1207DD8F1A900836
:10075000ADE493FF1207DD8F189008B1E493FF1208
:1007600007DD8F179008B2E493FF1207DD8F1B900F
:0B07700008B3E493FF1207DD8F19228D
:10085C00758911758C3C758AB0758D3C758BB0D2D1
:10086C00AFD2A9D28CD2ABD28E1206F012034A129E
:07087C00001E12077B80F54E
:03000B00020927C0
:10092700C0E0C0D0758C3C758AB00510E510B414D2
:0C09370006751000120908D0D0D0E03284
:03001B0002094394
:10094300C0E0C0D0758D3C758BB00514E514B414AC
:0909530003751400D0D0D0E0328D
:1006700002085CE493A3F8E493A34003F68001F23C
:1006800008DFF48029E493A3F85407240CC8C3338B
:10069000C4540F4420C8834004F456800146F6DF5A
:1006A000E4800B01020408102040809008E9E47EF9
:1006B000019360BCA3FF543F30E509541FFEE4934F
:1006C000A360010ECF54C025E060A840B8E493A316
:1006D000FAE493A3F8E493A3C8C582C8CAC583CA41
:1006E000F0A3C8C582C8CAC583CADFE9DEE780BEF9
:0109070000EF
:1008C700C2D530F707B2D563F0FF05F030E70CB2B9
:1008D700D5F4048463F0FF05F080018430D502F479
:0208E7000422E9
:00000001FF
